:020000040800F2
:1000000000200020D90F0008590A00085B0A0008E8
:1000100000000000000000000000000000000000E0
:100020000000000000000000000000005D0A000861
:1000300000000000000000005F0A0008610A0008DC
:1000400029100008291000082910000829100008AC
:10005000291000082910000829100008291000089C
:10006000291000082910000829100008291000088C
:10007000291000082910000829100008291000087C
:1000800029100008291000080000000029100008AD
:100090002910000809040008291000082910000888
:1000A000291000082910000829100008291000084C
:1000B00029100008000000002910000800000000BE
:1000C00010B5064C2378002B07D1054B002B02D02E
:1000D000044800E000BF0123237010BD0C00002085
:1000E0000000000084100008044B10B5002B03D062
:1000F0000349044800E000BF10BDC04600000000F6
:100100001000002084100008002243088B4274D3A2
:1001100003098B425FD3030A8B4244D3030B8B4208
:1001200028D3030C8B420DD3FF22090212BA030C11
:100130008B4202D31212090265D0030B8B4219D3F2
:1001400000E0090AC30B8B4201D3CB03C01A524112
:10015000830B8B4201D38B03C01A5241430B8B425A
:1001600001D34B03C01A5241030B8B4201D30B0343
:10017000C01A5241C30A8B4201D3CB02C01A52416A
:10018000830A8B4201D38B02C01A5241430A8B422D
:1001900001D34B02C01A5241030A8B4201D30B0216
:1001A000C01A5241CDD2C3098B4201D3CB01C01A30
:1001B000524183098B4201D38B01C01A524143093A
:1001C0008B4201D34B01C01A524103098B4201D328
:1001D0000B01C01A5241C3088B4201D3CB00C01A95
:1001E000524183088B4201D38B00C01A524143080D
:1001F0008B4201D34B00C01A5241411A00D2014632
:10020000524110467047FFE701B5002000F006F8A4
:1002100002BDC0460029F7D076E770477047C04658
:10022000F0B5DE4657464E464546E0B58BB018223F
:10023000002104A800F0F9FE5D4B5A698021C90332
:100240000A435A615A690A400392039A5A69802103
:1002500089020A435A615A690A400292029A5A690B
:100260008021C9020A435A615B690B400193019BDB
:10027000504D0126AE6202239A46AB620233994684
:10028000AB6204339846AB6208339B46AB621033D3
:10029000AB624022AA628021A96204960896902748
:1002A000FF0504A80100380000F0DFFB5046049071
:1002B00000240594089604A80100380000F0D5FB3E
:1002C000484604900594089604A80100380000F000
:1002D000CCFB404604900594089604A80100380021
:1002E00000F0C3FB0496059606940794089404A8AE
:1002F0000100280000F0B9FB5046049005960694D2
:100300000794089404A80100280000F0AEFB4846BA
:100310000490059606940794089404A80100280008
:1003200000F0A3FB404604900596069407940894B9
:1003300004A80100280000F098FB58460490059698
:1003400006940794089404A80100280000F08DFB8F
:1003500020230493059606940794089404AB19008F
:10036000280000F082FB4022049205960694079430
:10037000089404AB1900280000F077FB8021049159
:10038000059606940794089404A9280000F06DFBD4
:1003900080239B0004930594089404A9280000F08E
:1003A00064FB0BB0F0BCBB46B246A946A046F0BD0C
:1003B000001002400004004810B590200121C00543
:1003C00000F060FC002804D10E4BFA2252001A60A3
:1003D00010BD90200221C00500F054FC002804D17B
:1003E000084BFA22D2001A60F2E790200421C005DF
:1003F00000F048FC0028EBD1024BFA2292001A6070
:10040000E6E7C0462800002010B5024800F082FC54
:1004100010BDC0462C00002072B6FEE710B50C4897
:100420000C4B03600C4B4360002383600B4AC2609B
:10043000036143618033836100F06CFD002804D1C7
:10044000074B802292031A6010BDFFF7E5FFC046FC
:100450002C000020004401403F1F0000E703000083
:1004600000E100E010B51A4A136801218B431360C4
:10047000174B1B68DB07FBD4164A136801210B439B
:100480001360144B1B689B07FBD5124B1A68F821AD
:100490008A4378390A431A605A6870318A435A602D
:1004A0005A680D490A405A605A6803218A435A60C3
:1004B000084B5B680C221A42FAD1084800F086FD0E
:1004C000032000F02FFB002800D110BDFFF7A4FF90
:1004D0000020024000100240FFF8FFFF00127A00E7
:1004E00010B500F047FBFFF7BDFFFFF799FEFFF7E0
:1004F00095FFE04800F00EFD002801D0FFF78CFFCB
:10050000DC4800F0CDFB002800D1FDE1FFF784FFBF
:10051000D94C01220121200000F0BBFB0122022165
:10052000200000F0B6FB01220421200000F0B1FB06
:1005300000220821200000F0ACFB01221021200045
:1005400000F0A7FB00222021200000F0A2FB0022E7
:100550004021200000F09DFB01228021200000F0BE
:1005600098FBD7E190200821C00500F08BFB002804
:1005700000D1D5E1C14B186800F01EFBD0E19020FE
:100580000821C00500F07EFB002800D1CEE1BA4C66
:1005900001220121200000F07CFB01220221200029
:1005A00000F077FB00220421200000F072FB012202
:1005B0000821200000F06DFB00221021200000F037
:1005C00068FB00222021200000F063FB0122402173
:1005D000200000F05EFB00228021200000F059FB8B
:1005E000A4E190200821C00500F04CFB002800D1B8
:1005F000A2E1A24B186800F0DFFA9DE190200821EB
:10060000C00500F03FFB002800D19BE19A4C01227D
:100610000121200000F03DFB00220221200000F01B
:1006200038FB01220421200000F033FB00220821C6
:10063000200000F02EFB00221021200000F029FBFA
:1006400001222021200000F024FB00224021200074
:1006500000F01FFB00228021200000F01AFB71E156
:1006600090200821C00500F00DFB002800D16FE1AB
:10067000824B186800F0A0FA6AE190200821C005BA
:1006800000F000FB002800D168E17B4C0022012132
:10069000200000F0FEFA01220221200000F0F9FA09
:1006A00000220421200000F0F4FA0022082120009A
:1006B00000F0EFFA01221021200000F0EAFA0022F7
:1006C0002021200000F0E5FA00224021200000F067
:1006D000E0FA00228021200000F0DBFA3EE19020C9
:1006E0000821C00500F0CEFA002800D13CE1634BA0
:1006F000186800F061FA37E190200821C00500F089
:10070000C1FA002800D135E15B4C01220121200013
:1007100000F0BFFA00220221200000F0BAFA002205
:100720000421200000F0B5FA01220821200000F089
:10073000B0FA00221021200000F0ABFA00222021A4
:10074000200000F0A6FA00224021200000F0A1FACB
:1007500000228021200000F09CFA0BE1902008216B
:10076000C00500F08FFA002800D109E1434B18685A
:1007700000F022FA04E190200821C00500F082FA7E
:10078000002800D102E13C4C00220121200000F0B1
:1007900080FA00220221200000F07BFA01220421CD
:1007A000200000F076FA00220821200000F071FA03
:1007B00000221021200000F06CFA002220212000ED
:1007C00000F067FA00224021200000F062FA0022C7
:1007D0008021200000F05DFAD8E090200821C005BB
:1007E00000F050FA002800D1D6E0244B186800F041
:1007F000E3F9D1E090200821C00500F043FA002879
:1008000000D1CFE01C4C00220121200000F041FA71
:1008100001220221200000F03CFA002204212000E5
:1008200000F037FA00220821200000F032FA0022FE
:100830001021200000F02DFA00222021200000F0DD
:1008400028FA00224021200000F023FA0022802113
:10085000200000F01EFAA5E090200821C00500F05D
:1008600011FA002800D1A3E0044B186800F0A4F9A5
:100870009EE0C0462C000020000400482800002014
:1008800090200821C00500F0FDF9002800D195E076
:100890006E4C01220121200000F0FBF90022022110
:1008A000200000F0F6F900220421200000F0F1F908
:1008B00000220821200000F0ECF900221021200085
:1008C00000F0E7F900222021200000F0E2F90022E8
:1008D0004021200000F0DDF900228021200000F0FE
:1008E000D8F96BE090200821C00500F0CBF9002872
:1008F00069D0574B186800F05FF964E0554B1B68EE
:100900001B699B0700D594E0524B1B681B699B0732
:1009100000D5FDE54F4B1B681B699B0700D521E601
:100920004C4B1B681B699B0700D528E6494B1B688D
:100930001B699B0700D554E6464B1B681B699B0748
:1009400000D55BE6434B1B681B699B0700D587E618
:10095000404B1B681B699B0700D58EE63D4B1B680F
:100960001B699B0700D5BAE63A4B1B681B699B07BE
:1009700000D5C1E6374B1B681B699B0700D5EDE628
:10098000344B1B681B699B0700D5F4E6314B1B6891
:100990001B699B0700D520E72E4B1B681B699B0733
:1009A00000D527E72B4B1B681B699B0700D553E736
:1009B000284B1B681B699B0700D561E7254B1B680B
:1009C0001B699B078ED4234B1B681B699B0795D51E
:1009D00090200821C00500F055F900288ED01B4C4E
:1009E00000220121200000F054F900220221200001
:1009F00000F04FF900220421200000F04AF9002203
:100A00000821200000F045F900221021200000F00C
:100A100040F900222021200000F03BF90022402173
:100A2000200000F036F900228021200000F031F98A
:100A300064E790200821C00500F024F9002800D1C7
:100A400062E7034B186800F0B7F85DE70004004860
:100A5000280000202C000020FEE7FEE770477047CA
:100A600010B500F097F810BD7047F0B5002216E001
:100A70000B699C46C4682B006B435E00F618F74375
:100A8000B44366465E433443C4604C68022C26D0AF
:100A90004D6804683C406B432343036001320C689B
:100AA0002300D3403BD00123934025001D401C422E
:100AB000F4D04B68013B012BDAD88F6883682C0097
:100AC0006C4366003619B3437C43234383600E684E
:100AD000CC684368B343744323434360C8E7FF2DA6
:100AE0000DD84C69A446066A1C006C436C43250172
:100AF0002D1BAE4365466C4334430462C8E74C6922
:100B0000A446466A2D0A2C006C436C436C432501B5
:100B10002D1BAE4365466C4334434462B8E7002066
:100B2000F0BD000010B504000F4B1978FA208000CA
:100B3000FFF7EAFA01000D4B1868FFF7E5FA00F03D
:100B40009DF800280DD1032C01D901200AE00130C5
:100B500000222100404200F08DF8054B1C6000206F
:100B600000E0012010BDC04604000020000000206D
:100B70000800002010B5064A136810210B431360CB
:100B80000320FFF7CFFF00F0F3F9002010BDC046AF
:100B900000200240034A1168034B1B785B18136066
:100BA0007047C0467400002004000020014B186804
:100BB0007047C0467400002070B50400FFF7F6FFD0
:100BC0000500631C02D0044B1B78E418FFF7EEFF0E
:100BD000401BA042FAD370BD0400002070B500286D
:100BE00011DB8308134DC0339B005C590322104076
:100BF000C000FC3216008640B44389010A4082409E
:100C000022435A5170BD0F230340083B9B08063313
:100C10009B00094A944663445C6803221040C0006C
:100C2000FC3215008540AC4389010A4082402243D2
:100C30005A60E7E700E100E000ED00E001388023C2
:100C40005B0498420FD2094A50600948036A1B02AC
:100C50001B0AC02109060B4303620023936007337C
:100C60001360002070470120FCE7C04610E000E060
:100C700000ED00E010B5FFF7B1FF10BD10B5FFF7B4
:100C8000DDFF10BD03690B4201D001207047002039
:100C9000FCE7002A01D0816170478162FCE7000017
:100CA0003D23C35C012B26D13C330222C25402688F
:100CB000D36801210B43D3600368114A93420FD0DC
:100CC0008022D20593420BD00E4A934208D00E4A9E
:100CD000934205D01A6801210A431A6000200BE0F4
:100CE000996807220A40062A07D01A6801210A4398
:100CF0001A60002000E0012070470020FCE7C04699
:100D0000002C014000040040004001407047704743
:100D10007047704710B50400026813699B070FD530
:100D2000D3689B070CD503235B421361043303771D
:100D300003689B699B0763D0FFF7E9FF00232377D4
:100D4000226813695B0712D5D3685B070FD50523AB
:100D50005B4213610733237723689A69C0239B00A2
:100D60001A4253D02000FFF7D2FF002323772268D6
:100D700013691B0710D5D3681B070DD509235B42E8
:100D800013610D3323772368DB699B0745D020006F
:100D9000FFF7BDFF0023237722681369DB0612D516
:100DA000D368DB060FD511235B4213611933237718
:100DB0002368DA69C0239B001A4235D02000FFF770
:100DC000A6FF0023237722681369DB0702D5D368C7
:100DD000DB0730D4226813691B0602D5D3681B06D3
:100DE00030D4226813695B0602D5D3685B0630D421
:100DF000226813699B0602D5D3689B0630D410BDC8
:100E0000FFF784FF2000FFF783FF97E72000FFF73D
:100E10007DFF2000FFF77CFFA7E72000FFF776FFAC
:100E20002000FFF775FFB5E72000FFF76FFF2000F8
:100E3000FFF76EFFC5E702235B4213612000FFF757
:100E4000BBFAC7E781235B421361200000F08FF8F3
:100E5000C7E741235B4213612000FFF75AFFC7E752
:100E600021235B421361200000F080F8C7E70000F7
:100E70000368214A904206D08022D205904202D0D7
:100E80001E4A904203D1702293434A6813431A4A80
:100E9000904212D08022D20590420ED0174A904242
:100EA0000BD0174A904208D0164A904205D0164AF5
:100EB000904202D0154A904203D1154A1A40CB689D
:100EC0001343802293434A69134303608B68C362D0
:100ED0000B688362084B984208D00A4B984205D0B1
:100EE000094B984202D0094B984201D10B69036328
:100EF000012343617047C046002C014000040040BC
:100F000000200040004001400044014000480140F2
:100F1000FFFCFFFF70B5041E26D03D23C35C002BF1
:100F20001CD03D2502236355210001C9FFF7A0FF16
:100F300001234622A354083AA3540132A354013298
:100F4000A3540132A3540132A3540132A3540132F9
:100F5000A3540132A3546355002070BD3C330022DA
:100F6000C25400F01DF8DCE70120F6E77047704737
:100F700082B00A4B996901221143996199690A402B
:100F80000092009ADA69802149050A43DA61DB6937
:100F90000B400193019B02B07047C0460010024015
:100FA00082B00268074B9A4201D002B07047064BEC
:100FB0009A69802189020A439A619B690B400193D7
:100FC000019BF2E70044014000100240014B186011
:100FD0007047C046000000200D488546FFF744FDDD
:100FE0000C480D490D4A002302E0D458C450043384
:100FF000C4188C42F9D30A4A0A4C002301E013605A
:101000000432A242FBD300F019F8FFF769FAFEE7B9
:1010100000200020000000200C000020A410000888
:101020000C00002078000020FEE7030082189342A5
:1010300000D1704719700133F9E7000070B5002640
:101040000C4C0D4D641BA410A64209D1002600F0E3
:1010500019F80A4C0A4D641BA410A64205D170BDB4
:10106000B300EB5898470136EEE7B300EB589847CA
:101070000136F2E79C1000089C100008A010000840
:101080009C100008F8B5C046F8BC08BC9E467047E6
:0C109000F8B5C046F8BC08BC9E4670478E
:04109C00E90000085F
:0410A000C100000883
:0C10A40000127A000100000004000000AF
:0400000508000FD907
:00000001FF
